:0400000085EF00F098
:060008003782EEEF03F069
:100018003780D8CF14F0E8CF15F0E0CF16F0FACF3C
:1000280017F0FBCF18F0E9CF19F0EACF1AF0E1CFBB
:100038001BF0E2CF1CF0D9CF1DF0DACF1EF0F3CFC2
:100048001FF0F4CF20F0F6CF21F0F7CF22F0F8CF51
:1000580023F0F5CF24F037C025F038C026F039C09A
:1000680027F03AC028F09DB29EA21FD09E9236502B
:10007800D8B41BD036063650D8A417D00A0E366E20
:1000880033823550D8B411D035063550D8A40DD0A8
:100098000A0E356E33843450D8B407D03406345041
:1000A800D8A403D00A0E346E338628C03AF027C08D
:1000B80039F026C038F025C037F024C0F5FF23C03A
:1000C800F8FF22C0F7FF21C0F6FF20C0F4FF1FC0D1
:1000D800F3FF1EC0DAFF1DC0D9FF1CC0E2FF1BC022
:1000E800E1FF1AC0EAFF19C0E9FF18C0FBFF17C0FB
:1000F800FAFF16C0E0FF15C0E8FF14C0D8FF37901C
:06010800100096EF05F067
:1006000000220400550200000000000091D3051FE5
:10061000110000000001000064FF02001F0A2A838D
:100620001110A2130C0A9F5A2929C0A502531800C1
:10063000B40000010000AEE0350000F410E24220FA
:1006400000810066EC1CF0801408910202D0709AC0
:100650000C000350001F043F7F44649E15444EEC81
:100660001400BFEC06F033A6FED73396FF0E296EBA
:100670007F0ED5EC04F033A6FED73396E4EC06F0FB
:10068000326E33A6FED733963204D8A405D0020EBC
:10069000296E600ED5EC04F033A6FED73396E4EC59
:1006A00006F0326E020E3218D8A40AD08EEC04F096
:1006B000010E46EC04F0326E020E46EC04F0326E8F
:1006C00000F0040E46EC04F0326E00F000F000F092
:1006D0006E0E1BEC05F0306E010E296E690ED5EC26
:1006E00004F0800E0001A66F000EA76F090EA86F20
:1006F00058EC06F06E0E1BEC05F0306E00F0090EA3
:10070000C8EC06F0010ECFEC06F0060E46EC04F045
:10071000326E00F0030E296E6C0ED5EC04F033A699
:1007200029D03396E4EC06F0326E020E3218D8A4CB
:1007300021D0030E46EC04F0326E040E0001AE6FC1
:10074000A10EE82EFED7AE2FFCD700F000F0050E6C
:1007500046EC04F0326E89B404D00001AE6BAE2BCF
:1007600002D00001AE6BAE47AE478950AE19FB0B0D
:10077000AE19896E33A4D3D76E0E1BEC05F0306E24
:100780003050D8A400F03050780B306E3050D8B4D0
:1007900023D000F0000E296E690ED5EC04F0600E37
:1007A0000001A36F000EA46F200EA56F74EC06F07D
:1007B000020E296E6C0ED5EC04F089B204D0000153
:1007C000AE6BAE2B02D00001AE6BAE478950AE19B6
:1007D000FD0BAE19896E00F03394A1D7FACF02F069
:1007E000FBCF03F0E9CF04F0EACF05F0E1CF06F04C
:1007F000E2CF07F0D9CF08F0DACF09F0F3CF0AF053
:10080000F4CF0BF0F6CF0CF0F7CF0DF0F8CF0EF0E1
:10081000F5CF0FF037C010F038C011F039C012F02A
:100820003AC013F0F2928AB403D0016A012A01D0CF
:10083000016A014601468A500118FB0B01188A6EB5
:1008400013C03AF012C039F011C038F010C037F0C0
:100850000FC0F5FF0EC0F8FF0DC0F7FF0CC0F6FF8C
:100860000BC0F4FF0AC0F3FF09C0DAFF08C0D9FFCC
:1008700007C0E2FF06C0E1FF05C0EAFF04C0E9FFD0
:1008800003C0FBFF02C0FAFF379211000001A86FFE
:100890000001A829D8A41BD0FF0E296E7F0ED5EC2D
:1008A00004F0000E1200100E000109D0020E07D055
:1008B000040E05D0200E03D0080E01D0400EA96F03
:1008C0001BD0E4EC06F00001A96FA9511200000151
:1008D000A851010AD8B4E7D7030AD8B4E7D7010A68
:1008E000D8B4E6D7070AD8B4E5D7010AD8B4E4D714
:1008F000030AD8B4E3D7E5D7A9C029F0600ED5EC38
:1009000004F0E4EC06F002D0E4EC06F00001A96F7C
:10091000A851A919D8A4F8D7A95112000C0E0001AA
:10092000A86F420EA96F060EAA6F000E3AEC06F0F1
:100930000C0E0001A86F360EA96F060EAA6F0C0EE2
:100940003AEC06F0080E0001A86F590EA96F060ECA
:10095000AA6F180E3AEC06F0180E0001A86F1E0ED2
:10096000A96F060EAA6F200E3AEC06F01D0E0001CC
:10097000A86F010EA96F060EAA6F380E3AEC06F0AA
:100980000B0E0001A86F4E0EA96F060EAA6F550E32
:100990003AEC06F000F0F3EC05F0000ED6EC06F0B1
:1009A000000EDDEC06F000F012000001A26F800ED8
:1009B0000001A56F000EA46FA2C0A0F07F0EA017CB
:1009C000A051A66FA76BA651A76FA66B2950A625AD
:1009D000A66F000EA721A76F949A8A92A651A4151C
:1009E000A06FA751A515A16FA051A111D8B402D035
:1009F0008B8A01D08B9A000EA36F17D08B86D8906C
:100A0000A531A06FA431A46FA0C0A5F08B96A6510C
:100A1000A415A06FA751A515A16FA051A111D8B41D
:100A200002D08B8A01D08B9AA32B0F0EA365E6D739
:100A30008B9A8A8212000001A06F000E0001A16F44
:100A4000800EA36FA0518009A16F949A8A92A3513E
:100A5000A1150009D8B402D08B8A01D08B9A000E60
:100A6000A26F0ED08B86D890A331A36F8B96A35123
:100A7000A1150009D8B402D08B8A01D08B9AA22B81
:100A8000060EA265EFD78B86948A8B96000EA16F17
:100A9000800EA36F000EA26F0BD08B8682AA03D0AC
:100AA000A351A111A16F8B96D890A331A36FA22B54
:100AB000070EA265F2D78B9A949A8A82A1511200EE
:100AC0000001A06F000E0001A46F800EA36FA0C0F4
:100AD000A1F0A26B8A96000EA56FA551D8A402D0F2
:100AE000A52BFBD7000EA56F070EA56501D018D06A
:100AF0008B86D890A431296EA331A36F29C0A4F0AE
:100B00008B96A151A315296EA251A4152A6E2950C6
:100B10002A10D8B402D08B8A01D08B9AA52BE4D7A7
:100B2000050EE82EFED700F08A861200200EF66E23
:100B30000D0EF76E000EF86E00EE80F010EE20F055
:100B40000900F5CFEEFFE550E150FAE1EE0EF66E4A
:100B50000D0EF76E000EF86E0900F5CF34F00900A7
:100B6000F5CF35F00900F5CF36F000EE60F0200E3D
:100B7000EE6AE806FDE100EE2BF0090EEE6AE806EB
:100B8000FDE137903792000EF86E000131EF03F06F
:100B9000000E0001A06F800EA16F8A96000EA06F5C
:100BA000800EA16F000EA26FA251D8A402D0A22B7A
:100BB000FBD7000EA26F070EA26501D00CD08B866A
:100BC00082AA03D0A151A011A06F8B96D890A13119
:100BD000A16FA22BF0D7050EE82EFED700F08A8673
:100BE0000001A05112002D9E2D9C2D8A2D982D962E
:100BF0002D942D922D802DC029F0680ED5EC04F097
:100C0000680E1BEC05F02A6E2C802C922C942C86FE
:100C10002C882C9A2CC029F0660ED5EC04F02B9071
:100C20002B822B942B862B982BC029F0670ED5ECAA
:100C300004F0A0EC06F01200000E7E6E000E7F6E37
:100C40008A8293928A8693968B9694968B9A949A9C
:100C5000938089929292899492948A9493948A9898
:100C600093988A9A939A9286928A928A948E828C88
:100C7000949C12000001AB6F000E0001AD6FABC081
:100C8000ACF0000EAD6F0FD0A9C0F6FFAAC0F7FF01
:100C90000800F5CF29F0AC51D5EC04F00001AC2BE5
:100CA000A94BAA2BAD2BA851AD5DD8B01200ECD743
:100CB000949A8B96000E0001A96F11D0A6C0D9FF9F
:100CC000A7C0DAFFDF5060EC05F00001A64BA72BB0
:100CD0000A0EE82EFED700F000F00001A92BA85163
:100CE000A95DD8B01200EAD7948A8B96000E296EBF
:100CF00010D0C8EC05F0A3C0D9FFA4C0DAFFDF6EA6
:100D00000001A34BA42B0A0EE82EFED700F000F042
:100D1000292A0001A551295CD8A0EBD7949A12008A
:100D200001053045006000021000000000000000D6
:100D300000000000000000000000000000000000B3
:100D40002E50FC0B01092E6E2E50F30B04092E6E53
:100D5000CF0E2E162EC029F0650ED5EC04F0120031
:100D6000CA86CA88CA8ACA8CCA50FC0B0109CA6ED4
:100D70007C0ECB6ECA949F929D929E9212001CECA8
:100D800006F0B0EC06F0EBEC06F0F1EC06F0120029
:100D90002A6E2AC029F0460ED5EC04F012002A6E05
:100DA0002AC029F0480ED5EC04F012002A6E2AC0A1
:100DB00029F0470ED5EC04F012002A6E2AC029F063
:100DC0004C0ED5EC04F01200610E1BEC05F0296E00
:100DD00029500F0B1200000ECC6E9E929D82CA8489
:100DE0001200D08EF28EF28CF292F28812000A0A71
:010DF0000AF8
:020000040020DA
:08000000FFFFFFFFFFFFFFFF00
:020000040030CA
:0E000000FF861114FF8100FF0FC00FE00F40BC
:00000001FF
